{
  "contractName": "BarnRegistrationCenter",
  "abi": [
    {
      "constant": true,
      "inputs": [],
      "name": "barnCostInGoldEggs",
      "outputs": [
        {
          "name": "",
          "type": "uint8"
        }
      ],
      "payable": false,
      "stateMutability": "view",
      "type": "function"
    },
    {
      "inputs": [],
      "payable": false,
      "stateMutability": "nonpayable",
      "type": "constructor"
    },
    {
      "constant": false,
      "inputs": [
        {
          "name": "_barnAddress",
          "type": "address"
        }
      ],
      "name": "registerBarn",
      "outputs": [],
      "payable": false,
      "stateMutability": "nonpayable",
      "type": "function"
    },
    {
      "constant": false,
      "inputs": [],
      "name": "receiveNewGoldEgg",
      "outputs": [],
      "payable": false,
      "stateMutability": "nonpayable",
      "type": "function"
    },
    {
      "constant": false,
      "inputs": [],
      "name": "spendGoldEgg",
      "outputs": [],
      "payable": false,
      "stateMutability": "nonpayable",
      "type": "function"
    },
    {
      "constant": true,
      "inputs": [],
      "name": "getOwnedBarns",
      "outputs": [
        {
          "name": "",
          "type": "address[]"
        }
      ],
      "payable": false,
      "stateMutability": "view",
      "type": "function"
    },
    {
      "constant": true,
      "inputs": [],
      "name": "getGoldEggCount",
      "outputs": [
        {
          "name": "",
          "type": "uint256"
        }
      ],
      "payable": false,
      "stateMutability": "view",
      "type": "function"
    }
  ],
  "bytecode": "0x608060405234801561001057600080fd5b50610a8e806100206000396000f3fe608060405234801561001057600080fd5b50600436106100625760003560e01c806304666a3e146100675780632b872302146100715780636561c0f01461009557806398db83e7146100b357806399d2b2d9146100bd578063a2b7586b1461011c575b600080fd5b61006f610160565b005b61007961030f565b604051808260ff1660ff16815260200191505060405180910390f35b61009d610314565b6040518082815260200191505060405180910390f35b6100bb61035b565b005b6100c561061e565b6040518080602001828103825283818151815260200191508051906020019060200280838360005b838110156101085780820151818401526020810190506100ed565b505050509050019250505060405180910390f35b61015e6004803603602081101561013257600080fd5b81019080803573ffffffffffffffffffffffffffffffffffffffff1690602001909291905050506106e9565b005b600073ffffffffffffffffffffffffffffffffffffffff166000803373ffffffffffffffffffffffffffffffffffffffff1673ffffffffffffffffffffffffffffffffffffffff16815260200190815260200160002060009054906101000a900473ffffffffffffffffffffffffffffffffffffffff1673ffffffffffffffffffffffffffffffffffffffff161415610261576040517f08c379a000000000000000000000000000000000000000000000000000000000815260040180806020018281038252600e8152602001807f4261726e206e6f74206f776e656400000000000000000000000000000000000081525060200191505060405180910390fd5b6001600260008060003373ffffffffffffffffffffffffffffffffffffffff1673ffffffffffffffffffffffffffffffffffffffff16815260200190815260200160002060009054906101000a900473ffffffffffffffffffffffffffffffffffffffff1673ffffffffffffffffffffffffffffffffffffffff1673ffffffffffffffffffffffffffffffffffffffff16815260200190815260200160002060008282540192505081905550565b600a81565b6000600260003373ffffffffffffffffffffffffffffffffffffffff1673ffffffffffffffffffffffffffffffffffffffff16815260200190815260200160002054905090565b600073ffffffffffffffffffffffffffffffffffffffff166000803373ffffffffffffffffffffffffffffffffffffffff1673ffffffffffffffffffffffffffffffffffffffff16815260200190815260200160002060009054906101000a900473ffffffffffffffffffffffffffffffffffffffff1673ffffffffffffffffffffffffffffffffffffffff16141561045c576040517f08c379a000000000000000000000000000000000000000000000000000000000815260040180806020018281038252600e8152602001807f4261726e206e6f74206f776e656400000000000000000000000000000000000081525060200191505060405180910390fd5b6001600260008060003373ffffffffffffffffffffffffffffffffffffffff1673ffffffffffffffffffffffffffffffffffffffff16815260200190815260200160002060009054906101000a900473ffffffffffffffffffffffffffffffffffffffff1673ffffffffffffffffffffffffffffffffffffffff1673ffffffffffffffffffffffffffffffffffffffff168152602001908152602001600020541015610570576040517f08c379a00000000000000000000000000000000000000000000000000000000081526004018080602001828103825260168152602001807f4e6f20676f6c64206567677320617661696c61626c650000000000000000000081525060200191505060405180910390fd5b6001600260008060003373ffffffffffffffffffffffffffffffffffffffff1673ffffffffffffffffffffffffffffffffffffffff16815260200190815260200160002060009054906101000a900473ffffffffffffffffffffffffffffffffffffffff1673ffffffffffffffffffffffffffffffffffffffff1673ffffffffffffffffffffffffffffffffffffffff16815260200190815260200160002060008282540392505081905550565b6060600160003373ffffffffffffffffffffffffffffffffffffffff1673ffffffffffffffffffffffffffffffffffffffff1681526020019081526020016000208054806020026020016040519081016040528092919081815260200182805480156106df57602002820191906000526020600020905b8160009054906101000a900473ffffffffffffffffffffffffffffffffffffffff1673ffffffffffffffffffffffffffffffffffffffff1681526020019060010190808311610695575b5050505050905090565b600073ffffffffffffffffffffffffffffffffffffffff166000808373ffffffffffffffffffffffffffffffffffffffff1673ffffffffffffffffffffffffffffffffffffffff16815260200190815260200160002060009054906101000a900473ffffffffffffffffffffffffffffffffffffffff1673ffffffffffffffffffffffffffffffffffffffff16146107e9576040517f08c379a00000000000000000000000000000000000000000000000000000000081526004018080602001828103825260128152602001807f4261726e20616c7265616479206f776e6564000000000000000000000000000081525060200191505060405180910390fd5b6000600160003373ffffffffffffffffffffffffffffffffffffffff1673ffffffffffffffffffffffffffffffffffffffff16815260200190815260200160002080549050111561093f57600a60ff16600260003373ffffffffffffffffffffffffffffffffffffffff1673ffffffffffffffffffffffffffffffffffffffff1681526020019081526020016000205410156108ed576040517f08c379a00000000000000000000000000000000000000000000000000000000081526004018080602001828103825260148152602001807f4e6f7420656e6f75676820676f6c64206567677300000000000000000000000081525060200191505060405180910390fd5b600a60ff16600260003373ffffffffffffffffffffffffffffffffffffffff1673ffffffffffffffffffffffffffffffffffffffff168152602001908152602001600020600082825403925050819055505b336000808373ffffffffffffffffffffffffffffffffffffffff1673ffffffffffffffffffffffffffffffffffffffff16815260200190815260200160002060006101000a81548173ffffffffffffffffffffffffffffffffffffffff021916908373ffffffffffffffffffffffffffffffffffffffff160217905550600160003373ffffffffffffffffffffffffffffffffffffffff1673ffffffffffffffffffffffffffffffffffffffff1681526020019081526020016000208190806001815401808255809150509060018203906000526020600020016000909192909190916101000a81548173ffffffffffffffffffffffffffffffffffffffff021916908373ffffffffffffffffffffffffffffffffffffffff160217905550505056fea165627a7a72305820dc5e52baa8ed23bcb111e8d8d60c5c88d3cde1b315342682c29ef9d3b044eb4a0029",
  "source": "pragma solidity ^0.5.8;\n\ncontract BarnRegistrationCenter {\n    uint8 public constant barnCostInGoldEggs = 10;\n\n    mapping(address => address) barnIsOwnedBy;\n    mapping(address => address[]) barnsOwnedBy;\n    mapping(address => uint) goldEggsOwnedBy;\n\n    constructor() public {}\n\n    function registerBarn(address _barnAddress) external {\n        require(barnIsOwnedBy[_barnAddress] == address(0), \"Barn already owned\");\n        // TODO check if it's the expected smart contract bytecode?\n\n        // first barn is free, next ones cost gold eggs\n        if (barnsOwnedBy[msg.sender].length > 0) {\n            require(goldEggsOwnedBy[msg.sender] >= barnCostInGoldEggs, \"Not enough gold eggs\");\n\n            // no need for safe math because we already checked that there are enough\n            goldEggsOwnedBy[msg.sender] -= barnCostInGoldEggs;\n        }\n\n        barnIsOwnedBy[_barnAddress] = msg.sender;\n        barnsOwnedBy[msg.sender].push(_barnAddress);\n    }\n\n    function receiveNewGoldEgg() external {\n        require(barnIsOwnedBy[msg.sender] != address(0), \"Barn not owned\");\n        // should we check if this overflows?\n        goldEggsOwnedBy[barnIsOwnedBy[msg.sender]] += 1;\n    }\n\n    function spendGoldEgg() external {\n        require(barnIsOwnedBy[msg.sender] != address(0), \"Barn not owned\");\n        require(goldEggsOwnedBy[barnIsOwnedBy[msg.sender]] >= 1, \"No gold eggs available\");\n        goldEggsOwnedBy[barnIsOwnedBy[msg.sender]] -= 1;\n    }\n\n    function getOwnedBarns() public view returns (address[] memory) {\n        return barnsOwnedBy[msg.sender];\n    }\n\n    function getGoldEggCount() public view returns (uint) {\n        return goldEggsOwnedBy[msg.sender];\n    }\n}\n",
  "sourcePath": "/media/pedro/Files/Pessoal/Projects/chicken-farmer-ethereum/smart-contracts/contracts/BarnRegistrationCenter.sol",
  "compiler": {
    "name": "solc",
    "version": "0.5.8+commit.23d335f2.Emscripten.clang"
  },
  "schemaVersion": "3.0.13",
  "updatedAt": "2019-08-28T09:29:00.604Z",
  "devdoc": {
    "methods": {}
  },
  "userdoc": {
    "methods": {}
  }
}