{
  "contractName": "Barn",
  "abi": [
    {
      "constant": true,
      "inputs": [],
      "name": "autoFeederCost",
      "outputs": [
        {
          "name": "",
          "type": "uint8"
        }
      ],
      "payable": false,
      "stateMutability": "view",
      "type": "function"
    },
    {
      "constant": true,
      "inputs": [],
      "name": "availableFeed",
      "outputs": [
        {
          "name": "",
          "type": "uint256"
        }
      ],
      "payable": false,
      "stateMutability": "view",
      "type": "function"
    },
    {
      "constant": true,
      "inputs": [],
      "name": "feedPerGoldEgg",
      "outputs": [
        {
          "name": "",
          "type": "uint8"
        }
      ],
      "payable": false,
      "stateMutability": "view",
      "type": "function"
    },
    {
      "constant": true,
      "inputs": [
        {
          "name": "",
          "type": "uint256"
        }
      ],
      "name": "chickens",
      "outputs": [
        {
          "name": "blockOfPurchase",
          "type": "uint256"
        },
        {
          "name": "restingUntil",
          "type": "uint256"
        },
        {
          "name": "eggsLaid",
          "type": "uint256"
        },
        {
          "name": "goldEggsLaid",
          "type": "uint256"
        },
        {
          "name": "goldEggChance",
          "type": "uint8"
        },
        {
          "name": "available",
          "type": "bool"
        }
      ],
      "payable": false,
      "stateMutability": "view",
      "type": "function"
    },
    {
      "constant": true,
      "inputs": [],
      "name": "feedCost",
      "outputs": [
        {
          "name": "",
          "type": "uint8"
        }
      ],
      "payable": false,
      "stateMutability": "view",
      "type": "function"
    },
    {
      "constant": true,
      "inputs": [],
      "name": "chickenCost",
      "outputs": [
        {
          "name": "",
          "type": "uint8"
        }
      ],
      "payable": false,
      "stateMutability": "view",
      "type": "function"
    },
    {
      "constant": true,
      "inputs": [],
      "name": "autoFeederBought",
      "outputs": [
        {
          "name": "",
          "type": "bool"
        }
      ],
      "payable": false,
      "stateMutability": "view",
      "type": "function"
    },
    {
      "inputs": [
        {
          "name": "_barnRegistrationCenter",
          "type": "address"
        }
      ],
      "payable": false,
      "stateMutability": "nonpayable",
      "type": "constructor"
    },
    {
      "constant": false,
      "inputs": [],
      "name": "buyAutoFeeder",
      "outputs": [],
      "payable": false,
      "stateMutability": "nonpayable",
      "type": "function"
    },
    {
      "constant": false,
      "inputs": [],
      "name": "newChicken",
      "outputs": [],
      "payable": false,
      "stateMutability": "nonpayable",
      "type": "function"
    },
    {
      "constant": false,
      "inputs": [
        {
          "name": "_chickenBarcode",
          "type": "uint256"
        }
      ],
      "name": "sellChicken",
      "outputs": [],
      "payable": false,
      "stateMutability": "nonpayable",
      "type": "function"
    },
    {
      "constant": false,
      "inputs": [],
      "name": "buyFeed",
      "outputs": [],
      "payable": false,
      "stateMutability": "nonpayable",
      "type": "function"
    },
    {
      "constant": false,
      "inputs": [
        {
          "name": "_chickenBarcode",
          "type": "uint256"
        }
      ],
      "name": "feedChicken",
      "outputs": [],
      "payable": false,
      "stateMutability": "nonpayable",
      "type": "function"
    },
    {
      "constant": true,
      "inputs": [],
      "name": "getChickenCount",
      "outputs": [
        {
          "name": "",
          "type": "uint256"
        }
      ],
      "payable": false,
      "stateMutability": "view",
      "type": "function"
    }
  ],
  "bytecode": "0x608060405234801561001057600080fd5b506040516020806112268339810180604052602081101561003057600080fd5b8101908080519060200190929190505050336000806101000a81548173ffffffffffffffffffffffffffffffffffffffff021916908373ffffffffffffffffffffffffffffffffffffffff16021790555080600160006101000a81548173ffffffffffffffffffffffffffffffffffffffff021916908373ffffffffffffffffffffffffffffffffffffffff160217905550600a600160009054906101000a900473ffffffffffffffffffffffffffffffffffffffff1673ffffffffffffffffffffffffffffffffffffffff16632b8723026040518163ffffffff1660e01b815260040160206040518083038186803b15801561012c57600080fd5b505afa158015610140573d6000803e3d6000fd5b505050506040513d602081101561015657600080fd5b81019080805190602001909291905050500260ff166003819055506000600460006101000a81548160ff02191690831515021790555060026040518060c00160405280438152602001600081526020016000815260200160008152602001602160ff16815260200160011515815250908060018154018082558091505090600182039060005260206000209060050201600090919290919091506000820151816000015560208201518160010155604082015181600201556060820151816003015560808201518160040160006101000a81548160ff021916908360ff16021790555060a08201518160040160016101000a81548160ff02191690831515021790555050505050610fba8061026c6000396000f3fe608060405234801561001057600080fd5b50600436106100cf5760003560e01c80638baf31851161008c578063a86553f811610066578063a86553f81461022d578063c12833fa14610251578063d2e5c80e14610273578063ecf47e5a146102a1576100cf565b80638baf3185146101765780638fa07c481461019a578063a07b6a4214610209576100cf565b80631e222374146100d457806327741ee0146100de57806341fe565214610102578063476f7a5a1461012057806371b7bbde1461013e578063740b2f1714610148575b600080fd5b6100dc6102ab565b005b6100e66104a4565b604051808260ff1660ff16815260200191505060405180910390f35b61010a6104a9565b6040518082815260200191505060405180910390f35b6101286104af565b6040518082815260200191505060405180910390f35b6101466104bc565b005b6101746004803603602081101561015e57600080fd5b8101908080359060200190929190505050610625565b005b61017e610a7a565b604051808260ff1660ff16815260200191505060405180910390f35b6101c6600480360360208110156101b057600080fd5b8101908080359060200190929190505050610a7f565b604051808781526020018681526020018581526020018481526020018360ff1660ff16815260200182151515158152602001965050505050505060405180910390f35b610211610ae2565b604051808260ff1660ff16815260200191505060405180910390f35b610235610ae7565b604051808260ff1660ff16815260200191505060405180910390f35b610259610aec565b604051808215151515815260200191505060405180910390f35b61029f6004803603602081101561028957600080fd5b8101908080359060200190929190505050610aff565b005b6102a9610d1a565b005b6000809054906101000a900473ffffffffffffffffffffffffffffffffffffffff1673ffffffffffffffffffffffffffffffffffffffff163373ffffffffffffffffffffffffffffffffffffffff161461036d576040517f08c379a00000000000000000000000000000000000000000000000000000000081526004018080602001828103825260188152602001807f4f776e6572206578636c75736976652066756e6374696f6e000000000000000081525060200191505060405180910390fd5b60001515600460009054906101000a900460ff161515146103f6576040517f08c379a00000000000000000000000000000000000000000000000000000000081526004018080602001828103825260198152602001807f4175746f46656564657220616c726561647920626f756768740000000000000081525060200191505060405180910390fd5b600160009054906101000a900473ffffffffffffffffffffffffffffffffffffffff1673ffffffffffffffffffffffffffffffffffffffff16630311f95f60646040518263ffffffff1660e01b8152600401808260ff168152602001915050600060405180830381600087803b15801561046f57600080fd5b505af1158015610483573d6000803e3d6000fd5b505050506001600460006101000a81548160ff021916908315150217905550565b606481565b60035481565b6000600280549050905090565b6000809054906101000a900473ffffffffffffffffffffffffffffffffffffffff1673ffffffffffffffffffffffffffffffffffffffff163373ffffffffffffffffffffffffffffffffffffffff161461057e576040517f08c379a00000000000000000000000000000000000000000000000000000000081526004018080602001828103825260188152602001807f4f776e6572206578636c75736976652066756e6374696f6e000000000000000081525060200191505060405180910390fd5b600160009054906101000a900473ffffffffffffffffffffffffffffffffffffffff1673ffffffffffffffffffffffffffffffffffffffff16630311f95f60016040518263ffffffff1660e01b8152600401808260ff168152602001915050600060405180830381600087803b1580156105f757600080fd5b505af115801561060b573d6000803e3d6000fd5b50505050600a60ff16600360008282540192505081905550565b6000809054906101000a900473ffffffffffffffffffffffffffffffffffffffff1673ffffffffffffffffffffffffffffffffffffffff163373ffffffffffffffffffffffffffffffffffffffff16146106e7576040517f08c379a00000000000000000000000000000000000000000000000000000000081526004018080602001828103825260188152602001807f4f776e6572206578636c75736976652066756e6374696f6e000000000000000081525060200191505060405180910390fd5b60016003541015610760576040517f08c379a00000000000000000000000000000000000000000000000000000000081526004018080602001828103825260118152602001807f4e6f206665656420617661696c61626c6500000000000000000000000000000081525060200191505060405180910390fd5b60028054905081106107da576040517f08c379a00000000000000000000000000000000000000000000000000000000081526004018080602001828103825260168152602001807f436869636b656e20646f6573206e6f742065786973740000000000000000000081525060200191505060405180910390fd5b60011515600282815481106107eb57fe5b906000526020600020906005020160040160019054906101000a900460ff1615151461087f576040517f08c379a000000000000000000000000000000000000000000000000000000000815260040180806020018281038252600c8152602001807f436869636b656e20736f6c64000000000000000000000000000000000000000081525060200191505060405180910390fd5b436002828154811061088d57fe5b90600052602060002090600502016001015410610912576040517f08c379a00000000000000000000000000000000000000000000000000000000081526004018080602001828103825260158152602001807f436869636b656e207374696c6c2072657374696e67000000000000000000000081525060200191505060405180910390fd5b600061091e6064610f4a565b60ff1690506002828154811061093057fe5b906000526020600020906005020160040160009054906101000a900460ff1660ff16811015610a0957600160009054906101000a900473ffffffffffffffffffffffffffffffffffffffff1673ffffffffffffffffffffffffffffffffffffffff166304666a3e6040518163ffffffff1660e01b8152600401600060405180830381600087803b1580156109c357600080fd5b505af11580156109d7573d6000803e3d6000fd5b505050506001600283815481106109ea57fe5b9060005260206000209060050201600301600082825401925050819055505b600160028381548110610a1857fe5b90600052602060002090600502016002016000828254019250508190555060038181610a4057fe5b04430160028381548110610a5057fe5b90600052602060002090600502016001018190555060016003600082825403925050819055505050565b600a81565b60028181548110610a8c57fe5b90600052602060002090600502016000915090508060000154908060010154908060020154908060030154908060040160009054906101000a900460ff16908060040160019054906101000a900460ff16905086565b600181565b600181565b600460009054906101000a900460ff1681565b6000809054906101000a900473ffffffffffffffffffffffffffffffffffffffff1673ffffffffffffffffffffffffffffffffffffffff163373ffffffffffffffffffffffffffffffffffffffff1614610bc1576040517f08c379a00000000000000000000000000000000000000000000000000000000081526004018080602001828103825260188152602001807f4f776e6572206578636c75736976652066756e6374696f6e000000000000000081525060200191505060405180910390fd5b6002805490508110610c3b576040517f08c379a00000000000000000000000000000000000000000000000000000000081526004018080602001828103825260168152602001807f436869636b656e20646f6573206e6f742065786973740000000000000000000081525060200191505060405180910390fd5b6001151560028281548110610c4c57fe5b906000526020600020906005020160040160019054906101000a900460ff16151514610ce0576040517f08c379a00000000000000000000000000000000000000000000000000000000081526004018080602001828103825260148152602001807f436869636b656e20616c726561647920736f6c6400000000000000000000000081525060200191505060405180910390fd5b600060028281548110610cef57fe5b906000526020600020906005020160040160016101000a81548160ff02191690831515021790555050565b6000809054906101000a900473ffffffffffffffffffffffffffffffffffffffff1673ffffffffffffffffffffffffffffffffffffffff163373ffffffffffffffffffffffffffffffffffffffff1614610ddc576040517f08c379a00000000000000000000000000000000000000000000000000000000081526004018080602001828103825260188152602001807f4f776e6572206578636c75736976652066756e6374696f6e000000000000000081525060200191505060405180910390fd5b600160009054906101000a900473ffffffffffffffffffffffffffffffffffffffff1673ffffffffffffffffffffffffffffffffffffffff16630311f95f60016040518263ffffffff1660e01b8152600401808260ff168152602001915050600060405180830381600087803b158015610e5557600080fd5b505af1158015610e69573d6000803e3d6000fd5b5050505060026040518060c00160405280438152602001600081526020016000815260200160008152602001600a610ea1605a610f4a565b0160ff16815260200160011515815250908060018154018082558091505090600182039060005260206000209060050201600090919290919091506000820151816000015560208201518160010155604082015181600201556060820151816003015560808201518160040160006101000a81548160ff021916908360ff16021790555060a08201518160040160016101000a81548160ff021916908315150217905550505050565b600081424460405160200180838152602001828152602001925050506040516020818303038152906040528051906020012060001c81610f8657fe5b06905091905056fea165627a7a72305820d0b60c2c40d7dd520234ef7b580c9971a6cc892fd4361fe766c60acab23ad19a0029",
  "source": "pragma solidity ^0.5.8;\n\ncontract BarnRegistrationCenter {\n    uint8 public barnCostInGoldEggs;\n\n    function receiveNewGoldEgg() external {}\n    function spendGoldEggs(uint) external {}\n    function getGoldEggCount() external view returns (uint) {}\n}\n\ncontract Barn {\n    uint8 public constant feedPerGoldEgg = 10;\n    uint8 public constant autoFeederCost = 100;\n    uint8 public constant chickenCost = 1;\n    uint8 public constant feedCost = 1;\n\n    struct Chicken {\n        uint blockOfPurchase;\n        uint restingUntil;\n        uint eggsLaid;\n        uint goldEggsLaid;\n        uint8 goldEggChance;\n        bool available;\n    }\n\n    address owner;\n    BarnRegistrationCenter barnRegistrationCenter;\n    Chicken[] public chickens;\n    uint public availableFeed;\n    bool public autoFeederBought;\n\n    modifier onlyOwner {\n        require(msg.sender == owner, \"Owner exclusive function\");\n        _;\n    }\n\n    constructor(address _barnRegistrationCenter) public {\n        owner = msg.sender;\n        barnRegistrationCenter = BarnRegistrationCenter(_barnRegistrationCenter);\n        availableFeed = barnRegistrationCenter.barnCostInGoldEggs() * feedPerGoldEgg;\n        autoFeederBought = false;\n\n        // add starting chicken\n        chickens.push(Chicken(block.number, 0, 0, 0, 33, true));\n    }\n\n    function buyAutoFeeder() external onlyOwner {\n        require(autoFeederBought == false, \"AutoFeeder already bought\");\n        barnRegistrationCenter.spendGoldEggs(autoFeederCost);\n        autoFeederBought = true;\n    }\n\n    function newChicken() external onlyOwner {\n        barnRegistrationCenter.spendGoldEggs(chickenCost);\n\n        // gold egg chance will be in [10, 90]\n        chickens.push(Chicken(block.number, 0, 0, 0, rng(90) + 10, true));\n    }\n\n    function sellChicken(uint _chickenBarcode) external onlyOwner {\n        require(_chickenBarcode < chickens.length, \"Chicken does not exist\");\n        require(chickens[_chickenBarcode].available == true, \"Chicken already sold\");\n\n        chickens[_chickenBarcode].available = false;\n    }\n\n    function buyFeed() external onlyOwner {\n        // TODO variable feed cost with buyable upgrades\n        barnRegistrationCenter.spendGoldEggs(feedCost);\n        // TODO check for overflows\n        availableFeed += feedPerGoldEgg;\n    }\n\n    function feedChicken(uint _chickenBarcode) external onlyOwner {\n        require(availableFeed >= 1, \"No feed available\");\n        require(_chickenBarcode < chickens.length, \"Chicken does not exist\");\n        require(chickens[_chickenBarcode].available == true, \"Chicken sold\");\n        require(chickens[_chickenBarcode].restingUntil < block.number, \"Chicken still resting\");\n\n        uint randomVal = rng(100);\n        if (randomVal < chickens[_chickenBarcode].goldEggChance) {\n            barnRegistrationCenter.receiveNewGoldEgg();\n            chickens[_chickenBarcode].goldEggsLaid += 1;\n        }\n\n        chickens[_chickenBarcode].eggsLaid += 1;\n        chickens[_chickenBarcode].restingUntil = block.number + randomVal / 3;\n        availableFeed -= 1;\n    }\n\n    function getChickenCount() public view returns (uint) {\n        return chickens.length;\n    }\n\n    function rng(uint max) private view returns (uint8) {\n        // got this online, we don't really care if some miner cheats at this, should return in [0, max]\n        return uint8(uint256(keccak256(abi.encodePacked(block.timestamp, block.difficulty))) % max);\n    }\n}\n",
  "sourcePath": "/media/pedro/Files/Pessoal/Projects/chicken-farmer-ethereum/smart-contracts/contracts/Barn.sol",
  "compiler": {
    "name": "solc",
    "version": "0.5.8+commit.23d335f2.Emscripten.clang"
  },
  "schemaVersion": "3.0.14",
  "updatedAt": "2019-08-30T09:43:46.407Z",
  "devdoc": {
    "methods": {}
  },
  "userdoc": {
    "methods": {}
  }
}