{
  "contractName": "Barn",
  "abi": [
    {
      "constant": true,
      "inputs": [],
      "name": "availableFeed",
      "outputs": [
        {
          "name": "",
          "type": "uint256"
        }
      ],
      "payable": false,
      "stateMutability": "view",
      "type": "function"
    },
    {
      "constant": true,
      "inputs": [],
      "name": "feedPerGoldEgg",
      "outputs": [
        {
          "name": "",
          "type": "uint8"
        }
      ],
      "payable": false,
      "stateMutability": "view",
      "type": "function"
    },
    {
      "constant": true,
      "inputs": [
        {
          "name": "",
          "type": "uint256"
        }
      ],
      "name": "chickens",
      "outputs": [
        {
          "name": "blockOfPurchase",
          "type": "uint256"
        },
        {
          "name": "restingUntil",
          "type": "uint256"
        },
        {
          "name": "eggsLaid",
          "type": "uint256"
        },
        {
          "name": "goldEggsLaid",
          "type": "uint256"
        }
      ],
      "payable": false,
      "stateMutability": "view",
      "type": "function"
    },
    {
      "constant": true,
      "inputs": [],
      "name": "goldEggChance",
      "outputs": [
        {
          "name": "",
          "type": "uint8"
        }
      ],
      "payable": false,
      "stateMutability": "view",
      "type": "function"
    },
    {
      "inputs": [
        {
          "name": "_barnRegistrationCenter",
          "type": "address"
        }
      ],
      "payable": false,
      "stateMutability": "nonpayable",
      "type": "constructor"
    },
    {
      "constant": false,
      "inputs": [],
      "name": "newChicken",
      "outputs": [],
      "payable": false,
      "stateMutability": "nonpayable",
      "type": "function"
    },
    {
      "constant": false,
      "inputs": [],
      "name": "buyFeed",
      "outputs": [],
      "payable": false,
      "stateMutability": "nonpayable",
      "type": "function"
    },
    {
      "constant": false,
      "inputs": [
        {
          "name": "_chickenBarcode",
          "type": "uint256"
        }
      ],
      "name": "feedChicken",
      "outputs": [],
      "payable": false,
      "stateMutability": "nonpayable",
      "type": "function"
    },
    {
      "constant": true,
      "inputs": [],
      "name": "getChickenCount",
      "outputs": [
        {
          "name": "",
          "type": "uint256"
        }
      ],
      "payable": false,
      "stateMutability": "view",
      "type": "function"
    }
  ],
  "bytecode": "0x608060405234801561001057600080fd5b50604051602080610b018339810180604052602081101561003057600080fd5b8101908080519060200190929190505050336000806101000a81548173ffffffffffffffffffffffffffffffffffffffff021916908373ffffffffffffffffffffffffffffffffffffffff16021790555080600160006101000a81548173ffffffffffffffffffffffffffffffffffffffff021916908373ffffffffffffffffffffffffffffffffffffffff160217905550600a600160009054906101000a900473ffffffffffffffffffffffffffffffffffffffff1673ffffffffffffffffffffffffffffffffffffffff16632b8723026040518163ffffffff1660e01b815260040160206040518083038186803b15801561012c57600080fd5b505afa158015610140573d6000803e3d6000fd5b505050506040513d602081101561015657600080fd5b81019080805190602001909291905050500260ff166003819055506002604051806080016040528043815260200160008152602001600081526020016000815250908060018154018082558091505090600182039060005260206000209060040201600090919290919091506000820151816000015560208201518160010155604082015181600201556060820151816003015550505050610904806101fd6000396000f3fe608060405234801561001057600080fd5b50600436106100885760003560e01c80638baf31851161005b5780638baf3185146101015780638fa07c4814610125578063d0c87e1c1461017c578063ecf47e5a146101a057610088565b806341fe56521461008d578063476f7a5a146100ab57806371b7bbde146100c9578063740b2f17146100d3575b600080fd5b6100956101aa565b6040518082815260200191505060405180910390f35b6100b36101b0565b6040518082815260200191505060405180910390f35b6100d16101bd565b005b6100ff600480360360208110156100e957600080fd5b8101908080359060200190929190505050610317565b005b6101096106cf565b604051808260ff1660ff16815260200191505060405180910390f35b6101516004803603602081101561013b57600080fd5b81019080803590602001909291905050506106d4565b6040518085815260200184815260200183815260200182815260200194505050505060405180910390f35b610184610711565b604051808260ff1660ff16815260200191505060405180910390f35b6101a8610716565b005b60035481565b6000600280549050905090565b6000809054906101000a900473ffffffffffffffffffffffffffffffffffffffff1673ffffffffffffffffffffffffffffffffffffffff163373ffffffffffffffffffffffffffffffffffffffff161461027f576040517f08c379a00000000000000000000000000000000000000000000000000000000081526004018080602001828103825260188152602001807f4f776e6572206578636c75736976652066756e6374696f6e000000000000000081525060200191505060405180910390fd5b600160009054906101000a900473ffffffffffffffffffffffffffffffffffffffff1673ffffffffffffffffffffffffffffffffffffffff166398db83e76040518163ffffffff1660e01b8152600401600060405180830381600087803b1580156102e957600080fd5b505af11580156102fd573d6000803e3d6000fd5b50505050600a60ff16600360008282540192505081905550565b6000809054906101000a900473ffffffffffffffffffffffffffffffffffffffff1673ffffffffffffffffffffffffffffffffffffffff163373ffffffffffffffffffffffffffffffffffffffff16146103d9576040517f08c379a00000000000000000000000000000000000000000000000000000000081526004018080602001828103825260188152602001807f4f776e6572206578636c75736976652066756e6374696f6e000000000000000081525060200191505060405180910390fd5b60016003541015610452576040517f08c379a00000000000000000000000000000000000000000000000000000000081526004018080602001828103825260118152602001807f4e6f206665656420617661696c61626c6500000000000000000000000000000081525060200191505060405180910390fd5b60028054905081106104cc576040517f08c379a00000000000000000000000000000000000000000000000000000000081526004018080602001828103825260168152602001807f436869636b656e20646f6573206e6f742065786973740000000000000000000081525060200191505060405180910390fd5b43600282815481106104da57fe5b9060005260206000209060040201600101541061055f576040517f08c379a00000000000000000000000000000000000000000000000000000000081526004018080602001828103825260158152602001807f436869636b656e207374696c6c2072657374696e67000000000000000000000081525060200191505060405180910390fd5b60006064424460405160200180838152602001828152602001925050506040516020818303038152906040528051906020012060001c8161059c57fe5b0660ff169050600f60ff1681101561065e57600160009054906101000a900473ffffffffffffffffffffffffffffffffffffffff1673ffffffffffffffffffffffffffffffffffffffff166304666a3e6040518163ffffffff1660e01b8152600401600060405180830381600087803b15801561061857600080fd5b505af115801561062c573d6000803e3d6000fd5b5050505060016002838154811061063f57fe5b9060005260206000209060040201600301600082825401925050819055505b60016002838154811061066d57fe5b9060005260206000209060040201600201600082825401925050819055506002818161069557fe5b044301600283815481106106a557fe5b90600052602060002090600402016001018190555060016003600082825403925050819055505050565b600a81565b600281815481106106e157fe5b90600052602060002090600402016000915090508060000154908060010154908060020154908060030154905084565b600f81565b6000809054906101000a900473ffffffffffffffffffffffffffffffffffffffff1673ffffffffffffffffffffffffffffffffffffffff163373ffffffffffffffffffffffffffffffffffffffff16146107d8576040517f08c379a00000000000000000000000000000000000000000000000000000000081526004018080602001828103825260188152602001807f4f776e6572206578636c75736976652066756e6374696f6e000000000000000081525060200191505060405180910390fd5b600160009054906101000a900473ffffffffffffffffffffffffffffffffffffffff1673ffffffffffffffffffffffffffffffffffffffff166398db83e76040518163ffffffff1660e01b8152600401600060405180830381600087803b15801561084257600080fd5b505af1158015610856573d6000803e3d6000fd5b505050506002604051806080016040528043815260200160008152602001600081526020016000815250908060018154018082558091505090600182039060005260206000209060040201600090919290919091506000820151816000015560208201518160010155604082015181600201556060820151816003015550505056fea165627a7a72305820bfb80e9022efc975bfe047e026a3683e00b0e2d0a30588b43e7c7b3343187b660029",
  "source": "pragma solidity ^0.5.8;\n\ncontract BarnRegistrationCenter {\n    uint8 public barnCostInGoldEggs;\n\n    function receiveNewGoldEgg() external {}\n    function spendGoldEgg() external {}\n}\n\ncontract Barn {\n    uint8 public constant feedPerGoldEgg = 10;\n    uint8 public constant goldEggChance = 15;\n\n    struct Chicken {\n        uint blockOfPurchase;\n        uint restingUntil;\n        uint eggsLaid;\n        uint goldEggsLaid;\n    }\n\n    address owner;\n    BarnRegistrationCenter barnRegistrationCenter;\n    Chicken[] public chickens;\n    uint public availableFeed;\n\n    modifier onlyOwner {\n        require(msg.sender == owner, \"Owner exclusive function\");\n        _;\n    }\n\n    constructor(address _barnRegistrationCenter) public {\n        owner = msg.sender;\n        barnRegistrationCenter = BarnRegistrationCenter(_barnRegistrationCenter);\n        availableFeed = barnRegistrationCenter.barnCostInGoldEggs() * feedPerGoldEgg;\n\n        // add starting chicken\n        chickens.push(Chicken(block.number, 0, 0, 0));\n    }\n\n    function newChicken() external onlyOwner {\n        barnRegistrationCenter.spendGoldEgg();\n        chickens.push(Chicken(block.number, 0, 0, 0));\n    }\n\n    function buyFeed() external onlyOwner {\n        barnRegistrationCenter.spendGoldEgg();\n        // TODO check for overflows\n        availableFeed += feedPerGoldEgg;\n    }\n\n    function feedChicken(uint _chickenBarcode) external onlyOwner {\n        require(availableFeed >= 1, \"No feed available\");\n        require(_chickenBarcode < chickens.length, \"Chicken does not exist\");\n        require(chickens[_chickenBarcode].restingUntil < block.number, \"Chicken still resting\");\n\n        // got this online, we don't really care if some miner cheats at this, should return in [0, 99]\n        uint rng = uint8(uint256(keccak256(abi.encodePacked(block.timestamp, block.difficulty))) % 100);\n        if (rng < goldEggChance) {\n            barnRegistrationCenter.receiveNewGoldEgg();\n            chickens[_chickenBarcode].goldEggsLaid += 1;\n        }\n\n        chickens[_chickenBarcode].eggsLaid += 1;\n        chickens[_chickenBarcode].restingUntil = block.number + rng / 2;\n        availableFeed -= 1;\n    }\n\n    function getChickenCount() public view returns (uint) {\n\t\treturn chickens.length;\n\t}\n}\n",
  "sourcePath": "/media/pedro/Files/Pessoal/Projects/chicken-farmer-ethereum/smart-contracts/contracts/Barn.sol",
  "compiler": {
    "name": "solc",
    "version": "0.5.8+commit.23d335f2.Emscripten.clang"
  },
  "schemaVersion": "3.0.13",
  "updatedAt": "2019-08-29T10:14:43.268Z",
  "devdoc": {
    "methods": {}
  },
  "userdoc": {
    "methods": {}
  }
}